{
  "_format": "hh-sol-artifact-1",
  "contractName": "WavePortal",
  "sourceName": "contracts/WavePortal.sol",
  "abi": [
    {
      "inputs": [],
      "stateMutability": "payable",
      "type": "constructor"
    },
    {
      "anonymous": false,
      "inputs": [
        {
          "indexed": true,
          "internalType": "address",
          "name": "from",
          "type": "address"
        },
        {
          "indexed": false,
          "internalType": "string",
          "name": "message",
          "type": "string"
        },
        {
          "indexed": false,
          "internalType": "uint256",
          "name": "timestamp",
          "type": "uint256"
        }
      ],
      "name": "NewWave",
      "type": "event"
    },
    {
      "inputs": [],
      "name": "getAllWaves",
      "outputs": [
        {
          "components": [
            {
              "internalType": "address",
              "name": "from",
              "type": "address"
            },
            {
              "internalType": "string",
              "name": "message",
              "type": "string"
            },
            {
              "internalType": "uint256",
              "name": "timestamp",
              "type": "uint256"
            }
          ],
          "internalType": "struct WavePortal.Wave[]",
          "name": "",
          "type": "tuple[]"
        }
      ],
      "stateMutability": "view",
      "type": "function"
    },
    {
      "inputs": [],
      "name": "getTotalWaves",
      "outputs": [
        {
          "internalType": "uint256",
          "name": "",
          "type": "uint256"
        }
      ],
      "stateMutability": "view",
      "type": "function"
    },
    {
      "inputs": [],
      "name": "totalWaves",
      "outputs": [
        {
          "internalType": "uint256",
          "name": "",
          "type": "uint256"
        }
      ],
      "stateMutability": "view",
      "type": "function"
    },
    {
      "inputs": [
        {
          "internalType": "string",
          "name": "_message",
          "type": "string"
        }
      ],
      "name": "wave",
      "outputs": [],
      "stateMutability": "nonpayable",
      "type": "function"
    }
  ],
  "bytecode": "0x60806040526200004f6040518060400160405280601981526020017f57652068617665206265656e20636f6e737472756374656421000000000000008152506200007760201b620003ea1760201c565b606444426200005f91906200017c565b6200006b919062000208565b60008190555062000308565b62000117816040516024016200008e9190620002e4565b6040516020818303038152906040527f41304fac000000000000000000000000000000000000000000000000000000007bffffffffffffffffffffffffffffffffffffffffffffffffffffffff19166020820180517bffffffffffffffffffffffffffffffffffffffffffffffffffffffff83818316178352505050506200011a60201b60201c565b50565b60008151905060006a636f6e736f6c652e6c6f679050602083016000808483855afa5050505050565b6000819050919050565b7f4e487b7100000000000000000000000000000000000000000000000000000000600052601160045260246000fd5b6000620001898262000143565b9150620001968362000143565b9250827fffffffffffffffffffffffffffffffffffffffffffffffffffffffffffffffff03821115620001ce57620001cd6200014d565b5b828201905092915050565b7f4e487b7100000000000000000000000000000000000000000000000000000000600052601260045260246000fd5b6000620002158262000143565b9150620002228362000143565b925082620002355762000234620001d9565b5b828206905092915050565b600081519050919050565b600082825260208201905092915050565b60005b838110156200027c5780820151818401526020810190506200025f565b838111156200028c576000848401525b50505050565b6000601f19601f8301169050919050565b6000620002b08262000240565b620002bc81856200024b565b9350620002ce8185602086016200025c565b620002d98162000292565b840191505092915050565b60006020820190508181036000830152620003008184620002a3565b905092915050565b61118680620003186000396000f3fe608060405234801561001057600080fd5b506004361061004c5760003560e01c8063291bcab314610051578063449d46c01461006f5780639a2cdc081461008b578063bd43a908146100a9575b600080fd5b6100596100c7565b6040516100669190610a9c565b60405180910390f35b61008960048036038101906100849190610c11565b6100cd565b005b61009361024e565b6040516100a09190610a9c565b60405180910390f35b6100b1610299565b6040516100be9190610e44565b60405180910390f35b60035481565b6001600360008282546100e09190610e95565b925050819055506101276040518060400160405280601681526020017f257320776176656420772f206d657373616765202573000000000000000000008152503383610483565b600260405180606001604052803373ffffffffffffffffffffffffffffffffffffffff16815260200183815260200142815250908060018154018082558091505060019003906000526020600020906003020160009091909190915060008201518160000160006101000a81548173ffffffffffffffffffffffffffffffffffffffff021916908373ffffffffffffffffffffffffffffffffffffffff16021790555060208201518160010190805190602001906101e69291906109e0565b506040820151816002015550506101fb610522565b3373ffffffffffffffffffffffffffffffffffffffff167f6728ef66814a55b797863bf8ffcd954b19cbca4ed4f0e6cf04c980705fd82c368242604051610243929190610f35565b60405180910390a250565b60006102916040518060400160405280601781526020017f5765206861766520256420746f74616c207761766573210000000000000000008152506003546107e0565b600354905090565b60606002805480602002602001604051908101604052809291908181526020016000905b828210156103e157838290600052602060002090600302016040518060600160405290816000820160009054906101000a900473ffffffffffffffffffffffffffffffffffffffff1673ffffffffffffffffffffffffffffffffffffffff1673ffffffffffffffffffffffffffffffffffffffff16815260200160018201805461034690610f94565b80601f016020809104026020016040519081016040528092919081815260200182805461037290610f94565b80156103bf5780601f10610394576101008083540402835291602001916103bf565b820191906000526020600020905b8154815290600101906020018083116103a257829003601f168201915b50505050508152602001600282015481525050815260200190600101906102bd565b50505050905090565b610480816040516024016103fe9190610fc6565b6040516020818303038152906040527f41304fac000000000000000000000000000000000000000000000000000000007bffffffffffffffffffffffffffffffffffffffffffffffffffffffff19166020820180517bffffffffffffffffffffffffffffffffffffffffffffffffffffffff838183161783525050505061087c565b50565b61051d83838360405160240161049b93929190610ff7565b6040516020818303038152906040527fe0e9ad4f000000000000000000000000000000000000000000000000000000007bffffffffffffffffffffffffffffffffffffffffffffffffffffffff19166020820180517bffffffffffffffffffffffffffffffffffffffffffffffffffffffff838183161783525050505061087c565b505050565b600160003373ffffffffffffffffffffffffffffffffffffffff1673ffffffffffffffffffffffffffffffffffffffff16815260200190815260200160002060009054906101000a900460ff1615801561057d575060004714155b156107de57606460005442446105939190610e95565b61059d9190610e95565b6105a7919061106b565b6000819055506105ee6040518060400160405280601681526020017f52616e646f6d20232067656e6572617465643a202564000000000000000000008152506000546107e0565b6021600054116107dd576106376040518060400160405280600781526020017f257320776f6e2100000000000000000000000000000000000000000000000000815250336108a5565b6000655af3107a4000905047811161079c5760003373ffffffffffffffffffffffffffffffffffffffff168260405161066f906110cd565b60006040518083038185875af1925050503d80600081146106ac576040519150601f19603f3d011682016040523d82523d6000602084013e6106b1565b606091505b5050905080156107575760018060003373ffffffffffffffffffffffffffffffffffffffff1673ffffffffffffffffffffffffffffffffffffffff16815260200190815260200160002060006101000a81548160ff0219169083151502179055506107526040518060400160405280600d81526020017f25642073656e6420746f202573000000000000000000000000000000000000008152508333610941565b610796565b6107956040518060400160405280601b81526020017f556e61626c6520746f2073656e64205072697a6520416d6f756e7400000000008152506103ea565b5b506107db565b6107da6040518060400160405280601d81526020017f496e73756666696369656e7420436f6e74726163742042616c616e63650000008152506103ea565b5b505b5b565b61087882826040516024016107f6929190610f35565b6040516020818303038152906040527f9710a9d0000000000000000000000000000000000000000000000000000000007bffffffffffffffffffffffffffffffffffffffffffffffffffffffff19166020820180517bffffffffffffffffffffffffffffffffffffffffffffffffffffffff838183161783525050505061087c565b5050565b60008151905060006a636f6e736f6c652e6c6f679050602083016000808483855afa5050505050565b61093d82826040516024016108bb9291906110e2565b6040516020818303038152906040527f319af333000000000000000000000000000000000000000000000000000000007bffffffffffffffffffffffffffffffffffffffffffffffffffffffff19166020820180517bffffffffffffffffffffffffffffffffffffffffffffffffffffffff838183161783525050505061087c565b5050565b6109db83838360405160240161095993929190611112565b6040516020818303038152906040527fe3849f79000000000000000000000000000000000000000000000000000000007bffffffffffffffffffffffffffffffffffffffffffffffffffffffff19166020820180517bffffffffffffffffffffffffffffffffffffffffffffffffffffffff838183161783525050505061087c565b505050565b8280546109ec90610f94565b90600052602060002090601f016020900481019282610a0e5760008555610a55565b82601f10610a2757805160ff1916838001178555610a55565b82800160010185558215610a55579182015b82811115610a54578251825591602001919060010190610a39565b5b509050610a629190610a66565b5090565b5b80821115610a7f576000816000905550600101610a67565b5090565b6000819050919050565b610a9681610a83565b82525050565b6000602082019050610ab16000830184610a8d565b92915050565b6000604051905090565b600080fd5b600080fd5b600080fd5b600080fd5b6000601f19601f8301169050919050565b7f4e487b7100000000000000000000000000000000000000000000000000000000600052604160045260246000fd5b610b1e82610ad5565b810181811067ffffffffffffffff82111715610b3d57610b3c610ae6565b5b80604052505050565b6000610b50610ab7565b9050610b5c8282610b15565b919050565b600067ffffffffffffffff821115610b7c57610b7b610ae6565b5b610b8582610ad5565b9050602081019050919050565b82818337600083830152505050565b6000610bb4610baf84610b61565b610b46565b905082815260208101848484011115610bd057610bcf610ad0565b5b610bdb848285610b92565b509392505050565b600082601f830112610bf857610bf7610acb565b5b8135610c08848260208601610ba1565b91505092915050565b600060208284031215610c2757610c26610ac1565b5b600082013567ffffffffffffffff811115610c4557610c44610ac6565b5b610c5184828501610be3565b91505092915050565b600081519050919050565b600082825260208201905092915050565b6000819050602082019050919050565b600073ffffffffffffffffffffffffffffffffffffffff82169050919050565b6000610cb182610c86565b9050919050565b610cc181610ca6565b82525050565b600081519050919050565b600082825260208201905092915050565b60005b83811015610d01578082015181840152602081019050610ce6565b83811115610d10576000848401525b50505050565b6000610d2182610cc7565b610d2b8185610cd2565b9350610d3b818560208601610ce3565b610d4481610ad5565b840191505092915050565b610d5881610a83565b82525050565b6000606083016000830151610d766000860182610cb8565b5060208301518482036020860152610d8e8282610d16565b9150506040830151610da36040860182610d4f565b508091505092915050565b6000610dba8383610d5e565b905092915050565b6000602082019050919050565b6000610dda82610c5a565b610de48185610c65565b935083602082028501610df685610c76565b8060005b85811015610e325784840389528151610e138582610dae565b9450610e1e83610dc2565b925060208a01995050600181019050610dfa565b50829750879550505050505092915050565b60006020820190508181036000830152610e5e8184610dcf565b905092915050565b7f4e487b7100000000000000000000000000000000000000000000000000000000600052601160045260246000fd5b6000610ea082610a83565b9150610eab83610a83565b9250827fffffffffffffffffffffffffffffffffffffffffffffffffffffffffffffffff03821115610ee057610edf610e66565b5b828201905092915050565b600082825260208201905092915050565b6000610f0782610cc7565b610f118185610eeb565b9350610f21818560208601610ce3565b610f2a81610ad5565b840191505092915050565b60006040820190508181036000830152610f4f8185610efc565b9050610f5e6020830184610a8d565b9392505050565b7f4e487b7100000000000000000000000000000000000000000000000000000000600052602260045260246000fd5b60006002820490506001821680610fac57607f821691505b60208210811415610fc057610fbf610f65565b5b50919050565b60006020820190508181036000830152610fe08184610efc565b905092915050565b610ff181610ca6565b82525050565b600060608201905081810360008301526110118186610efc565b90506110206020830185610fe8565b81810360408301526110328184610efc565b9050949350505050565b7f4e487b7100000000000000000000000000000000000000000000000000000000600052601260045260246000fd5b600061107682610a83565b915061108183610a83565b9250826110915761109061103c565b5b828206905092915050565b600081905092915050565b50565b60006110b760008361109c565b91506110c2826110a7565b600082019050919050565b60006110d8826110aa565b9150819050919050565b600060408201905081810360008301526110fc8185610efc565b905061110b6020830184610fe8565b9392505050565b6000606082019050818103600083015261112c8186610efc565b905061113b6020830185610a8d565b6111486040830184610fe8565b94935050505056fea2646970667358221220ae7047be8783c815e5a9380a805d9a98eb4b6c6ebee20691c0ae16fc2c38004a64736f6c634300080b0033",
  "linkReferences": {},
  "deployedLinkReferences": {}
}