{
  "_format": "hh-sol-artifact-1",
  "contractName": "WavePortal",
  "sourceName": "contracts/WavePortal.sol",
  "abi": [
    {
      "inputs": [],
      "stateMutability": "nonpayable",
      "type": "constructor"
    },
    {
      "anonymous": false,
      "inputs": [
        {
          "indexed": true,
          "internalType": "address",
          "name": "from",
          "type": "address"
        },
        {
          "indexed": false,
          "internalType": "string",
          "name": "message",
          "type": "string"
        },
        {
          "indexed": false,
          "internalType": "uint256",
          "name": "timestamp",
          "type": "uint256"
        }
      ],
      "name": "NewWave",
      "type": "event"
    },
    {
      "inputs": [],
      "name": "getAllWaves",
      "outputs": [
        {
          "components": [
            {
              "internalType": "address",
              "name": "waver",
              "type": "address"
            },
            {
              "internalType": "string",
              "name": "message",
              "type": "string"
            },
            {
              "internalType": "uint256",
              "name": "timestamp",
              "type": "uint256"
            }
          ],
          "internalType": "struct WavePortal.Wave[]",
          "name": "",
          "type": "tuple[]"
        }
      ],
      "stateMutability": "view",
      "type": "function"
    },
    {
      "inputs": [],
      "name": "getTotalWaves",
      "outputs": [
        {
          "internalType": "uint256",
          "name": "",
          "type": "uint256"
        }
      ],
      "stateMutability": "view",
      "type": "function"
    },
    {
      "inputs": [],
      "name": "totalWaves",
      "outputs": [
        {
          "internalType": "uint256",
          "name": "",
          "type": "uint256"
        }
      ],
      "stateMutability": "view",
      "type": "function"
    },
    {
      "inputs": [
        {
          "internalType": "string",
          "name": "_message",
          "type": "string"
        }
      ],
      "name": "wave",
      "outputs": [],
      "stateMutability": "nonpayable",
      "type": "function"
    }
  ],
  "bytecode": "0x60806040523480156200001157600080fd5b506200005d6040518060400160405280601981526020017f4920414d20534d41525420434f4e54524143542e20504f472e000000000000008152506200006360201b620003e11760201c565b620001f7565b62000103816040516024016200007a9190620001d3565b6040516020818303038152906040527f41304fac000000000000000000000000000000000000000000000000000000007bffffffffffffffffffffffffffffffffffffffffffffffffffffffff19166020820180517bffffffffffffffffffffffffffffffffffffffffffffffffffffffff83818316178352505050506200010660201b60201c565b50565b60008151905060006a636f6e736f6c652e6c6f679050602083016000808483855afa5050505050565b600081519050919050565b600082825260208201905092915050565b60005b838110156200016b5780820151818401526020810190506200014e565b838111156200017b576000848401525b50505050565b6000601f19601f8301169050919050565b60006200019f826200012f565b620001ab81856200013a565b9350620001bd8185602086016200014b565b620001c88162000181565b840191505092915050565b60006020820190508181036000830152620001ef818462000192565b905092915050565b610c7080620002076000396000f3fe608060405234801561001057600080fd5b506004361061004c5760003560e01c8063291bcab314610051578063449d46c01461006f5780639a2cdc081461008b578063bd43a908146100a9575b600080fd5b6100596100c7565b604051610066919061069a565b60405180910390f35b6100896004803603810190610084919061080f565b6100cd565b005b610093610245565b6040516100a0919061069a565b60405180910390f35b6100b1610290565b6040516100be9190610a42565b60405180910390f35b60015481565b60018060008282546100df9190610a93565b925050819055506101266040518060400160405280601681526020017f257320776176656420772f206d65737361676520257300000000000000000000815250338361047a565b600060405180606001604052803373ffffffffffffffffffffffffffffffffffffffff16815260200183815260200142815250908060018154018082558091505060019003906000526020600020906003020160009091909190915060008201518160000160006101000a81548173ffffffffffffffffffffffffffffffffffffffff021916908373ffffffffffffffffffffffffffffffffffffffff16021790555060208201518160010190805190602001906101e59291906105de565b506040820151816002015550503373ffffffffffffffffffffffffffffffffffffffff167f6728ef66814a55b797863bf8ffcd954b19cbca4ed4f0e6cf04c980705fd82c36824260405161023a929190610b33565b60405180910390a250565b60006102886040518060400160405280601781526020017f5765206861766520256420746f74616c20776176657321000000000000000000815250600154610519565b600154905090565b60606000805480602002602001604051908101604052809291908181526020016000905b828210156103d857838290600052602060002090600302016040518060600160405290816000820160009054906101000a900473ffffffffffffffffffffffffffffffffffffffff1673ffffffffffffffffffffffffffffffffffffffff1673ffffffffffffffffffffffffffffffffffffffff16815260200160018201805461033d90610b92565b80601f016020809104026020016040519081016040528092919081815260200182805461036990610b92565b80156103b65780601f1061038b576101008083540402835291602001916103b6565b820191906000526020600020905b81548152906001019060200180831161039957829003601f168201915b50505050508152602001600282015481525050815260200190600101906102b4565b50505050905090565b610477816040516024016103f59190610bc4565b6040516020818303038152906040527f41304fac000000000000000000000000000000000000000000000000000000007bffffffffffffffffffffffffffffffffffffffffffffffffffffffff19166020820180517bffffffffffffffffffffffffffffffffffffffffffffffffffffffff83818316178352505050506105b5565b50565b61051483838360405160240161049293929190610bf5565b6040516020818303038152906040527fe0e9ad4f000000000000000000000000000000000000000000000000000000007bffffffffffffffffffffffffffffffffffffffffffffffffffffffff19166020820180517bffffffffffffffffffffffffffffffffffffffffffffffffffffffff83818316178352505050506105b5565b505050565b6105b1828260405160240161052f929190610b33565b6040516020818303038152906040527f9710a9d0000000000000000000000000000000000000000000000000000000007bffffffffffffffffffffffffffffffffffffffffffffffffffffffff19166020820180517bffffffffffffffffffffffffffffffffffffffffffffffffffffffff83818316178352505050506105b5565b5050565b60008151905060006a636f6e736f6c652e6c6f679050602083016000808483855afa5050505050565b8280546105ea90610b92565b90600052602060002090601f01602090048101928261060c5760008555610653565b82601f1061062557805160ff1916838001178555610653565b82800160010185558215610653579182015b82811115610652578251825591602001919060010190610637565b5b5090506106609190610664565b5090565b5b8082111561067d576000816000905550600101610665565b5090565b6000819050919050565b61069481610681565b82525050565b60006020820190506106af600083018461068b565b92915050565b6000604051905090565b600080fd5b600080fd5b600080fd5b600080fd5b6000601f19601f8301169050919050565b7f4e487b7100000000000000000000000000000000000000000000000000000000600052604160045260246000fd5b61071c826106d3565b810181811067ffffffffffffffff8211171561073b5761073a6106e4565b5b80604052505050565b600061074e6106b5565b905061075a8282610713565b919050565b600067ffffffffffffffff82111561077a576107796106e4565b5b610783826106d3565b9050602081019050919050565b82818337600083830152505050565b60006107b26107ad8461075f565b610744565b9050828152602081018484840111156107ce576107cd6106ce565b5b6107d9848285610790565b509392505050565b600082601f8301126107f6576107f56106c9565b5b813561080684826020860161079f565b91505092915050565b600060208284031215610825576108246106bf565b5b600082013567ffffffffffffffff811115610843576108426106c4565b5b61084f848285016107e1565b91505092915050565b600081519050919050565b600082825260208201905092915050565b6000819050602082019050919050565b600073ffffffffffffffffffffffffffffffffffffffff82169050919050565b60006108af82610884565b9050919050565b6108bf816108a4565b82525050565b600081519050919050565b600082825260208201905092915050565b60005b838110156108ff5780820151818401526020810190506108e4565b8381111561090e576000848401525b50505050565b600061091f826108c5565b61092981856108d0565b93506109398185602086016108e1565b610942816106d3565b840191505092915050565b61095681610681565b82525050565b600060608301600083015161097460008601826108b6565b506020830151848203602086015261098c8282610914565b91505060408301516109a1604086018261094d565b508091505092915050565b60006109b8838361095c565b905092915050565b6000602082019050919050565b60006109d882610858565b6109e28185610863565b9350836020820285016109f485610874565b8060005b85811015610a305784840389528151610a1185826109ac565b9450610a1c836109c0565b925060208a019950506001810190506109f8565b50829750879550505050505092915050565b60006020820190508181036000830152610a5c81846109cd565b905092915050565b7f4e487b7100000000000000000000000000000000000000000000000000000000600052601160045260246000fd5b6000610a9e82610681565b9150610aa983610681565b9250827fffffffffffffffffffffffffffffffffffffffffffffffffffffffffffffffff03821115610ade57610add610a64565b5b828201905092915050565b600082825260208201905092915050565b6000610b05826108c5565b610b0f8185610ae9565b9350610b1f8185602086016108e1565b610b28816106d3565b840191505092915050565b60006040820190508181036000830152610b4d8185610afa565b9050610b5c602083018461068b565b9392505050565b7f4e487b7100000000000000000000000000000000000000000000000000000000600052602260045260246000fd5b60006002820490506001821680610baa57607f821691505b60208210811415610bbe57610bbd610b63565b5b50919050565b60006020820190508181036000830152610bde8184610afa565b905092915050565b610bef816108a4565b82525050565b60006060820190508181036000830152610c0f8186610afa565b9050610c1e6020830185610be6565b8181036040830152610c308184610afa565b905094935050505056fea26469706673582212202b3b7ef6fb0a5d2cf54b88cee99ca6d551ae0845db6c197b7783800eef4e0cc464736f6c634300080b0033",
  "linkReferences": {},
  "deployedLinkReferences": {}
}