{
  "_format": "hh-sol-artifact-1",
  "contractName": "WavePortal",
  "sourceName": "contracts/WavePortal.sol",
  "abi": [
    {
      "inputs": [],
      "stateMutability": "nonpayable",
      "type": "constructor"
    },
    {
      "inputs": [],
      "name": "getTotalUsersWaved",
      "outputs": [
        {
          "internalType": "uint256",
          "name": "",
          "type": "uint256"
        }
      ],
      "stateMutability": "view",
      "type": "function"
    },
    {
      "inputs": [],
      "name": "getTotalWaves",
      "outputs": [
        {
          "internalType": "uint256",
          "name": "",
          "type": "uint256"
        }
      ],
      "stateMutability": "view",
      "type": "function"
    },
    {
      "inputs": [],
      "name": "totalWaves",
      "outputs": [
        {
          "internalType": "uint256",
          "name": "",
          "type": "uint256"
        }
      ],
      "stateMutability": "view",
      "type": "function"
    },
    {
      "inputs": [],
      "name": "wave",
      "outputs": [],
      "stateMutability": "nonpayable",
      "type": "function"
    }
  ],
  "bytecode": "0x608060405234801561001057600080fd5b5061003c6040518060600160405280602581526020016108cb6025913961004160201b6102b31760201c565b6101c4565b6100dd8160405160240161005591906101a2565b6040516020818303038152906040527f41304fac000000000000000000000000000000000000000000000000000000007bffffffffffffffffffffffffffffffffffffffffffffffffffffffff19166020820180517bffffffffffffffffffffffffffffffffffffffffffffffffffffffff83818316178352505050506100e060201b60201c565b50565b60008151905060006a636f6e736f6c652e6c6f679050602083016000808483855afa5050505050565b600081519050919050565b600082825260208201905092915050565b60005b83811015610143578082015181840152602081019050610128565b83811115610152576000848401525b50505050565b6000601f19601f8301169050919050565b600061017482610109565b61017e8185610114565b935061018e818560208601610125565b61019781610158565b840191505092915050565b600060208201905081810360008301526101bc8184610169565b905092915050565b6106f8806101d36000396000f3fe608060405234801561001057600080fd5b506004361061004c5760003560e01c8063291bcab3146100515780632ec5e9c21461006f5780636fe15b441461008d5780639a2cdc0814610097575b600080fd5b6100596100b5565b60405161006691906104c6565b60405180910390f35b6100776100bb565b60405161008491906104c6565b60405180910390f35b61009561010c565b005b61009f610268565b6040516100ac91906104c6565b60405180910390f35b60005481565b60006101016040518060400160405280601481526020017f546f74616c20557365727320776176656420256400000000000000000000000081525060028054905061034c565b600280549050905090565b6000600160003373ffffffffffffffffffffffffffffffffffffffff1673ffffffffffffffffffffffffffffffffffffffff1681526020019081526020016000205414156101b8576002339080600181540180825580915050600190039060005260206000200160009091909190916101000a81548173ffffffffffffffffffffffffffffffffffffffff021916908373ffffffffffffffffffffffffffffffffffffffff1602179055505b60016000808282546101ca9190610510565b9250508190555060018060003373ffffffffffffffffffffffffffffffffffffffff1673ffffffffffffffffffffffffffffffffffffffff16815260200190815260200160002060008282546102209190610510565b925050819055506102666040518060400160405280600d81526020017f2573206861732077617665642100000000000000000000000000000000000000815250336103e8565b565b60006102ab6040518060400160405280601781526020017f5765206861766520256420746f74616c2077617665732100000000000000000081525060005461034c565b600054905090565b610349816040516024016102c791906105ff565b6040516020818303038152906040527f41304fac000000000000000000000000000000000000000000000000000000007bffffffffffffffffffffffffffffffffffffffffffffffffffffffff19166020820180517bffffffffffffffffffffffffffffffffffffffffffffffffffffffff8381831617835250505050610484565b50565b6103e48282604051602401610362929190610621565b6040516020818303038152906040527f9710a9d0000000000000000000000000000000000000000000000000000000007bffffffffffffffffffffffffffffffffffffffffffffffffffffffff19166020820180517bffffffffffffffffffffffffffffffffffffffffffffffffffffffff8381831617835250505050610484565b5050565b61048082826040516024016103fe929190610692565b6040516020818303038152906040527f319af333000000000000000000000000000000000000000000000000000000007bffffffffffffffffffffffffffffffffffffffffffffffffffffffff19166020820180517bffffffffffffffffffffffffffffffffffffffffffffffffffffffff8381831617835250505050610484565b5050565b60008151905060006a636f6e736f6c652e6c6f679050602083016000808483855afa5050505050565b6000819050919050565b6104c0816104ad565b82525050565b60006020820190506104db60008301846104b7565b92915050565b7f4e487b7100000000000000000000000000000000000000000000000000000000600052601160045260246000fd5b600061051b826104ad565b9150610526836104ad565b9250827fffffffffffffffffffffffffffffffffffffffffffffffffffffffffffffffff0382111561055b5761055a6104e1565b5b828201905092915050565b600081519050919050565b600082825260208201905092915050565b60005b838110156105a0578082015181840152602081019050610585565b838111156105af576000848401525b50505050565b6000601f19601f8301169050919050565b60006105d182610566565b6105db8185610571565b93506105eb818560208601610582565b6105f4816105b5565b840191505092915050565b6000602082019050818103600083015261061981846105c6565b905092915050565b6000604082019050818103600083015261063b81856105c6565b905061064a60208301846104b7565b9392505050565b600073ffffffffffffffffffffffffffffffffffffffff82169050919050565b600061067c82610651565b9050919050565b61068c81610671565b82525050565b600060408201905081810360008301526106ac81856105c6565b90506106bb6020830184610683565b939250505056fea2646970667358221220ed677ac0e8420064002557e1bf09f5b30dd8667704f394fd0612943c0db2e05164736f6c634300080b0033596f20796f2c204920616d206120636f6e747261637420616e64204920616d20736d617274",
  "linkReferences": {},
  "deployedLinkReferences": {}
}